{
  "_format": "hh-sol-artifact-1",
  "contractName": "Todo",
  "sourceName": "contracts/Todo.sol",
  "abi": [
    {
      "inputs": [
        {
          "internalType": "uint256",
          "name": "_index",
          "type": "uint256"
        }
      ],
      "name": "completeTask",
      "outputs": [],
      "stateMutability": "nonpayable",
      "type": "function"
    },
    {
      "inputs": [
        {
          "internalType": "string",
          "name": "_task",
          "type": "string"
        }
      ],
      "name": "createTask",
      "outputs": [],
      "stateMutability": "nonpayable",
      "type": "function"
    },
    {
      "inputs": [],
      "name": "getTasks",
      "outputs": [
        {
          "components": [
            {
              "internalType": "uint256",
              "name": "date",
              "type": "uint256"
            },
            {
              "internalType": "string",
              "name": "task",
              "type": "string"
            },
            {
              "internalType": "bool",
              "name": "completed",
              "type": "bool"
            },
            {
              "internalType": "uint256",
              "name": "index",
              "type": "uint256"
            }
          ],
          "internalType": "struct Todo.Task[]",
          "name": "",
          "type": "tuple[]"
        }
      ],
      "stateMutability": "view",
      "type": "function"
    }
  ],
  "bytecode": "0x60806040526000805534801561001457600080fd5b50610b08806100246000396000f3fe608060405234801561001057600080fd5b50600436106100415760003560e01c806304a87e3814610046578063111002aa14610064578063e1e2955814610080575b600080fd5b61004e61009c565b60405161005b919061083f565b60405180910390f35b61007e60048036038101906100799190610692565b6101f9565b005b61009a600480360381019061009591906106d3565b61032e565b005b6060600160003373ffffffffffffffffffffffffffffffffffffffff1673ffffffffffffffffffffffffffffffffffffffff168152602001908152602001600020805480602002602001604051908101604052809291908181526020016000905b828210156101f057838290600052602060002090600402016040518060800160405290816000820154815260200160018201805461013a906109ba565b80601f0160208091040260200160405190810160405280929190818152602001828054610166906109ba565b80156101b35780601f10610188576101008083540402835291602001916101b3565b820191906000526020600020905b81548152906001019060200180831161019657829003601f168201915b505050505081526020016002820160009054906101000a900460ff16151515158152602001600382015481525050815260200190600101906100fd565b50505050905090565b600060018060003373ffffffffffffffffffffffffffffffffffffffff1673ffffffffffffffffffffffffffffffffffffffff16815260200190815260200160002080549050610249919061090c565b9050600160003373ffffffffffffffffffffffffffffffffffffffff1673ffffffffffffffffffffffffffffffffffffffff16815260200190815260200160002060405180608001604052804281526020018481526020016000151581526020018381525090806001815401808255809150506001900390600052602060002090600402016000909190919091506000820151816000015560208201518160010190805190602001906102fd929190610572565b5060408201518160020160006101000a81548160ff0219169083151502179055506060820151816003015550505050565b6000600160003373ffffffffffffffffffffffffffffffffffffffff1673ffffffffffffffffffffffffffffffffffffffff16815260200190815260200160002082815481106103a7577f4e487b7100000000000000000000000000000000000000000000000000000000600052603260045260246000fd5b9060005260206000209060040201604051806080016040529081600082015481526020016001820180546103da906109ba565b80601f0160208091040260200160405190810160405280929190818152602001828054610406906109ba565b80156104535780601f1061042857610100808354040283529160200191610453565b820191906000526020600020905b81548152906001019060200180831161043657829003601f168201915b505050505081526020016002820160009054906101000a900460ff161515151581526020016003820154815250509050600181604001901515908115158152505080600160003373ffffffffffffffffffffffffffffffffffffffff1673ffffffffffffffffffffffffffffffffffffffff168152602001908152602001600020838154811061050c577f4e487b7100000000000000000000000000000000000000000000000000000000600052603260045260246000fd5b9060005260206000209060040201600082015181600001556020820151816001019080519060200190610540929190610572565b5060408201518160020160006101000a81548160ff021916908315150217905550606082015181600301559050505050565b82805461057e906109ba565b90600052602060002090601f0160209004810192826105a057600085556105e7565b82601f106105b957805160ff19168380011785556105e7565b828001600101855582156105e7579182015b828111156105e65782518255916020019190600101906105cb565b5b5090506105f491906105f8565b5090565b5b808211156106115760008160009055506001016105f9565b5090565b600061062861062384610886565b610861565b90508281526020810184848401111561064057600080fd5b61064b848285610978565b509392505050565b600082601f83011261066457600080fd5b8135610674848260208601610615565b91505092915050565b60008135905061068c81610abb565b92915050565b6000602082840312156106a457600080fd5b600082013567ffffffffffffffff8111156106be57600080fd5b6106ca84828501610653565b91505092915050565b6000602082840312156106e557600080fd5b60006106f38482850161067d565b91505092915050565b600061070883836107cd565b905092915050565b600061071b826108c7565b61072581856108ea565b935083602082028501610737856108b7565b8060005b85811015610773578484038952815161075485826106fc565b945061075f836108dd565b925060208a0199505060018101905061073b565b50829750879550505050505092915050565b61078e81610962565b82525050565b600061079f826108d2565b6107a981856108fb565b93506107b9818560208601610987565b6107c281610aaa565b840191505092915050565b60006080830160008301516107e56000860182610830565b50602083015184820360208601526107fd8282610794565b91505060408301516108126040860182610785565b5060608301516108256060860182610830565b508091505092915050565b6108398161096e565b82525050565b600060208201905081810360008301526108598184610710565b905092915050565b600061086b61087c565b905061087782826109ec565b919050565b6000604051905090565b600067ffffffffffffffff8211156108a1576108a0610a7b565b5b6108aa82610aaa565b9050602081019050919050565b6000819050602082019050919050565b600081519050919050565b600081519050919050565b6000602082019050919050565b600082825260208201905092915050565b600082825260208201905092915050565b60006109178261096e565b91506109228361096e565b9250827fffffffffffffffffffffffffffffffffffffffffffffffffffffffffffffffff0382111561095757610956610a1d565b5b828201905092915050565b60008115159050919050565b6000819050919050565b82818337600083830152505050565b60005b838110156109a557808201518184015260208101905061098a565b838111156109b4576000848401525b50505050565b600060028204905060018216806109d257607f821691505b602082108114156109e6576109e5610a4c565b5b50919050565b6109f582610aaa565b810181811067ffffffffffffffff82111715610a1457610a13610a7b565b5b80604052505050565b7f4e487b7100000000000000000000000000000000000000000000000000000000600052601160045260246000fd5b7f4e487b7100000000000000000000000000000000000000000000000000000000600052602260045260246000fd5b7f4e487b7100000000000000000000000000000000000000000000000000000000600052604160045260246000fd5b6000601f19601f8301169050919050565b610ac48161096e565b8114610acf57600080fd5b5056fea264697066735822122083da722001935ef79d5bc50f7a97fcc278609123a9e26f51f67a985a8041e1fa64736f6c63430008040033",
  "linkReferences": {},
  "deployedLinkReferences": {}
}