{
  "_format": "hh-sol-artifact-1",
  "contractName": "Todo",
  "sourceName": "contracts/Todo.sol",
  "abi": [
    {
      "inputs": [
        {
          "internalType": "string",
          "name": "_task",
          "type": "string"
        }
      ],
      "name": "createTask",
      "outputs": [],
      "stateMutability": "nonpayable",
      "type": "function"
    },
    {
      "inputs": [
        {
          "internalType": "uint256",
          "name": "_taskIndex",
          "type": "uint256"
        }
      ],
      "name": "getTasks",
      "outputs": [
        {
          "components": [
            {
              "internalType": "uint256",
              "name": "date",
              "type": "uint256"
            },
            {
              "internalType": "string",
              "name": "task",
              "type": "string"
            },
            {
              "internalType": "bool",
              "name": "completed",
              "type": "bool"
            }
          ],
          "internalType": "struct Todo.Task",
          "name": "",
          "type": "tuple"
        }
      ],
      "stateMutability": "view",
      "type": "function"
    }
  ],
  "bytecode": "0x60806040526000805534801561001457600080fd5b506106d8806100246000396000f3fe608060405234801561001057600080fd5b50600436106100365760003560e01c8063111002aa1461003b578063cf8f4be214610057575b600080fd5b61005560048036038101906100509190610344565b610087565b005b610071600480360381019061006c9190610385565b61011d565b60405161007e9190610455565b60405180910390f35b60405180606001604052804281526020018281526020016000151581525060016000805481526020019081526020016000206000820151816000015560208201518160010190805190602001906100df929190610201565b5060408201518160020160006101000a81548160ff021916908315150217905550905050600080815480929190610115906105a4565b919050555050565b610125610287565b600160008381526020019081526020016000206040518060600160405290816000820154815260200160018201805461015d90610541565b80601f016020809104026020016040519081016040528092919081815260200182805461018990610541565b80156101d65780601f106101ab576101008083540402835291602001916101d6565b820191906000526020600020905b8154815290600101906020018083116101b957829003601f168201915b505050505081526020016002820160009054906101000a900460ff1615151515815250509050919050565b82805461020d90610541565b90600052602060002090601f01602090048101928261022f5760008555610276565b82601f1061024857805160ff1916838001178555610276565b82800160010185558215610276579182015b8281111561027557825182559160200191906001019061025a565b5b50905061028391906102aa565b5090565b604051806060016040528060008152602001606081526020016000151581525090565b5b808211156102c35760008160009055506001016102ab565b5090565b60006102da6102d58461049c565b610477565b9050828152602081018484840111156102f257600080fd5b6102fd8482856104ff565b509392505050565b600082601f83011261031657600080fd5b81356103268482602086016102c7565b91505092915050565b60008135905061033e8161068b565b92915050565b60006020828403121561035657600080fd5b600082013567ffffffffffffffff81111561037057600080fd5b61037c84828501610305565b91505092915050565b60006020828403121561039757600080fd5b60006103a58482850161032f565b91505092915050565b6103b7816104e9565b82525050565b60006103c8826104cd565b6103d281856104d8565b93506103e281856020860161050e565b6103eb8161067a565b840191505092915050565b600060608301600083015161040e6000860182610446565b506020830151848203602086015261042682826103bd565b915050604083015161043b60408601826103ae565b508091505092915050565b61044f816104f5565b82525050565b6000602082019050818103600083015261046f81846103f6565b905092915050565b6000610481610492565b905061048d8282610573565b919050565b6000604051905090565b600067ffffffffffffffff8211156104b7576104b661064b565b5b6104c08261067a565b9050602081019050919050565b600081519050919050565b600082825260208201905092915050565b60008115159050919050565b6000819050919050565b82818337600083830152505050565b60005b8381101561052c578082015181840152602081019050610511565b8381111561053b576000848401525b50505050565b6000600282049050600182168061055957607f821691505b6020821081141561056d5761056c61061c565b5b50919050565b61057c8261067a565b810181811067ffffffffffffffff8211171561059b5761059a61064b565b5b80604052505050565b60006105af826104f5565b91507fffffffffffffffffffffffffffffffffffffffffffffffffffffffffffffffff8214156105e2576105e16105ed565b5b600182019050919050565b7f4e487b7100000000000000000000000000000000000000000000000000000000600052601160045260246000fd5b7f4e487b7100000000000000000000000000000000000000000000000000000000600052602260045260246000fd5b7f4e487b7100000000000000000000000000000000000000000000000000000000600052604160045260246000fd5b6000601f19601f8301169050919050565b610694816104f5565b811461069f57600080fd5b5056fea26469706673582212205fd7323f2f0509ecd35867c7913983b952bf782cdce084c30d20da4e11891acd64736f6c63430008040033",
  "linkReferences": {},
  "deployedLinkReferences": {}
}